{
  "_format": "hh-sol-artifact-1",
  "contractName": "CO2",
  "sourceName": "contracts/CO2.sol",
  "abi": [
    {
      "inputs": [],
      "stateMutability": "nonpayable",
      "type": "constructor"
    },
    {
      "inputs": [],
      "name": "adminOrPrice",
      "type": "error"
    },
    {
      "inputs": [],
      "name": "noRightAmountsOfTokens",
      "type": "error"
    },
    {
      "inputs": [],
      "name": "notTradableTokenOrNotEnoughTokenAmount",
      "type": "error"
    },
    {
      "inputs": [],
      "name": "tokenNotComingFromOwner",
      "type": "error"
    },
    {
      "inputs": [],
      "name": "transferNotAccepted",
      "type": "error"
    },
    {
      "inputs": [],
      "name": "zeroAddress",
      "type": "error"
    },
    {
      "anonymous": false,
      "inputs": [
        {
          "indexed": true,
          "internalType": "address",
          "name": "account",
          "type": "address"
        },
        {
          "indexed": true,
          "internalType": "address",
          "name": "operator",
          "type": "address"
        },
        {
          "indexed": false,
          "internalType": "bool",
          "name": "approved",
          "type": "bool"
        }
      ],
      "name": "ApprovalForAll",
      "type": "event"
    },
    {
      "anonymous": false,
      "inputs": [
        {
          "indexed": true,
          "internalType": "address",
          "name": "previousOwner",
          "type": "address"
        },
        {
          "indexed": true,
          "internalType": "address",
          "name": "newOwner",
          "type": "address"
        }
      ],
      "name": "OwnershipTransferred",
      "type": "event"
    },
    {
      "anonymous": false,
      "inputs": [
        {
          "indexed": true,
          "internalType": "address",
          "name": "operator",
          "type": "address"
        },
        {
          "indexed": true,
          "internalType": "address",
          "name": "from",
          "type": "address"
        },
        {
          "indexed": true,
          "internalType": "address",
          "name": "to",
          "type": "address"
        },
        {
          "indexed": false,
          "internalType": "uint256[]",
          "name": "ids",
          "type": "uint256[]"
        },
        {
          "indexed": false,
          "internalType": "uint256[]",
          "name": "values",
          "type": "uint256[]"
        }
      ],
      "name": "TransferBatch",
      "type": "event"
    },
    {
      "anonymous": false,
      "inputs": [
        {
          "indexed": true,
          "internalType": "address",
          "name": "operator",
          "type": "address"
        },
        {
          "indexed": true,
          "internalType": "address",
          "name": "from",
          "type": "address"
        },
        {
          "indexed": true,
          "internalType": "address",
          "name": "to",
          "type": "address"
        },
        {
          "indexed": false,
          "internalType": "uint256",
          "name": "id",
          "type": "uint256"
        },
        {
          "indexed": false,
          "internalType": "uint256",
          "name": "value",
          "type": "uint256"
        }
      ],
      "name": "TransferSingle",
      "type": "event"
    },
    {
      "anonymous": false,
      "inputs": [
        {
          "indexed": false,
          "internalType": "string",
          "name": "value",
          "type": "string"
        },
        {
          "indexed": true,
          "internalType": "uint256",
          "name": "id",
          "type": "uint256"
        }
      ],
      "name": "URI",
      "type": "event"
    },
    {
      "inputs": [
        {
          "internalType": "address",
          "name": "account",
          "type": "address"
        },
        {
          "internalType": "uint256",
          "name": "id",
          "type": "uint256"
        }
      ],
      "name": "balanceOf",
      "outputs": [
        {
          "internalType": "uint256",
          "name": "",
          "type": "uint256"
        }
      ],
      "stateMutability": "view",
      "type": "function"
    },
    {
      "inputs": [
        {
          "internalType": "address[]",
          "name": "accounts",
          "type": "address[]"
        },
        {
          "internalType": "uint256[]",
          "name": "ids",
          "type": "uint256[]"
        }
      ],
      "name": "balanceOfBatch",
      "outputs": [
        {
          "internalType": "uint256[]",
          "name": "",
          "type": "uint256[]"
        }
      ],
      "stateMutability": "view",
      "type": "function"
    },
    {
      "inputs": [
        {
          "internalType": "uint256",
          "name": "id",
          "type": "uint256"
        },
        {
          "internalType": "uint256",
          "name": "amount",
          "type": "uint256"
        }
      ],
      "name": "burn",
      "outputs": [],
      "stateMutability": "nonpayable",
      "type": "function"
    },
    {
      "inputs": [
        {
          "internalType": "uint256[]",
          "name": "ids",
          "type": "uint256[]"
        },
        {
          "internalType": "uint256[]",
          "name": "amounts",
          "type": "uint256[]"
        }
      ],
      "name": "burnBatch",
      "outputs": [],
      "stateMutability": "nonpayable",
      "type": "function"
    },
    {
      "inputs": [
        {
          "internalType": "uint256",
          "name": "id",
          "type": "uint256"
        },
        {
          "internalType": "uint256",
          "name": "quantity",
          "type": "uint256"
        }
      ],
      "name": "buyToken",
      "outputs": [],
      "stateMutability": "payable",
      "type": "function"
    },
    {
      "inputs": [
        {
          "internalType": "uint256",
          "name": "newPrice",
          "type": "uint256"
        }
      ],
      "name": "changePrice",
      "outputs": [],
      "stateMutability": "nonpayable",
      "type": "function"
    },
    {
      "inputs": [
        {
          "internalType": "address",
          "name": "account",
          "type": "address"
        },
        {
          "internalType": "address",
          "name": "operator",
          "type": "address"
        }
      ],
      "name": "isApprovedForAll",
      "outputs": [
        {
          "internalType": "bool",
          "name": "",
          "type": "bool"
        }
      ],
      "stateMutability": "view",
      "type": "function"
    },
    {
      "inputs": [
        {
          "internalType": "uint256[]",
          "name": "ids",
          "type": "uint256[]"
        },
        {
          "internalType": "uint256[]",
          "name": "amounts",
          "type": "uint256[]"
        },
        {
          "internalType": "uint256",
          "name": "prices",
          "type": "uint256"
        },
        {
          "internalType": "string",
          "name": "uris",
          "type": "string"
        }
      ],
      "name": "mintBatch",
      "outputs": [],
      "stateMutability": "nonpayable",
      "type": "function"
    },
    {
      "inputs": [],
      "name": "owner",
      "outputs": [
        {
          "internalType": "address",
          "name": "",
          "type": "address"
        }
      ],
      "stateMutability": "view",
      "type": "function"
    },
    {
      "inputs": [],
      "name": "renounceOwnership",
      "outputs": [],
      "stateMutability": "nonpayable",
      "type": "function"
    },
    {
      "inputs": [
        {
          "internalType": "address",
          "name": "from",
          "type": "address"
        },
        {
          "internalType": "address",
          "name": "to",
          "type": "address"
        },
        {
          "internalType": "uint256[]",
          "name": "ids",
          "type": "uint256[]"
        },
        {
          "internalType": "uint256[]",
          "name": "amounts",
          "type": "uint256[]"
        },
        {
          "internalType": "bytes",
          "name": "data",
          "type": "bytes"
        }
      ],
      "name": "safeBatchTransferFrom",
      "outputs": [],
      "stateMutability": "nonpayable",
      "type": "function"
    },
    {
      "inputs": [
        {
          "internalType": "address",
          "name": "from",
          "type": "address"
        },
        {
          "internalType": "address",
          "name": "to",
          "type": "address"
        },
        {
          "internalType": "uint256",
          "name": "id",
          "type": "uint256"
        },
        {
          "internalType": "uint256",
          "name": "amount",
          "type": "uint256"
        },
        {
          "internalType": "bytes",
          "name": "data",
          "type": "bytes"
        }
      ],
      "name": "safeTransferFrom",
      "outputs": [],
      "stateMutability": "nonpayable",
      "type": "function"
    },
    {
      "inputs": [
        {
          "internalType": "address",
          "name": "operator",
          "type": "address"
        },
        {
          "internalType": "bool",
          "name": "approved",
          "type": "bool"
        }
      ],
      "name": "setApprovalForAll",
      "outputs": [],
      "stateMutability": "nonpayable",
      "type": "function"
    },
    {
      "inputs": [
        {
          "internalType": "bytes4",
          "name": "interfaceId",
          "type": "bytes4"
        }
      ],
      "name": "supportsInterface",
      "outputs": [
        {
          "internalType": "bool",
          "name": "",
          "type": "bool"
        }
      ],
      "stateMutability": "view",
      "type": "function"
    },
    {
      "inputs": [],
      "name": "tokenPrice",
      "outputs": [
        {
          "internalType": "uint256",
          "name": "",
          "type": "uint256"
        }
      ],
      "stateMutability": "view",
      "type": "function"
    },
    {
      "inputs": [],
      "name": "tokenSold",
      "outputs": [
        {
          "internalType": "uint256",
          "name": "",
          "type": "uint256"
        }
      ],
      "stateMutability": "view",
      "type": "function"
    },
    {
      "inputs": [
        {
          "internalType": "uint256",
          "name": "",
          "type": "uint256"
        }
      ],
      "name": "tradableTokens",
      "outputs": [
        {
          "internalType": "bool",
          "name": "",
          "type": "bool"
        }
      ],
      "stateMutability": "view",
      "type": "function"
    },
    {
      "inputs": [
        {
          "internalType": "address",
          "name": "newOwner",
          "type": "address"
        }
      ],
      "name": "transferOwnership",
      "outputs": [],
      "stateMutability": "nonpayable",
      "type": "function"
    },
    {
      "inputs": [
        {
          "internalType": "uint256",
          "name": "_tokenId",
          "type": "uint256"
        }
      ],
      "name": "uri",
      "outputs": [
        {
          "internalType": "string",
          "name": "",
          "type": "string"
        }
      ],
      "stateMutability": "view",
      "type": "function"
    }
  ],
  "bytecode": "0x60806040523480156200001157600080fd5b506040518060200160405280600081525062000033816200006260201b60201c565b5062000054620000486200007e60201b60201c565b6200008660201b60201c565b600160048190555062000261565b80600290805190602001906200007a9291906200014c565b5050565b600033905090565b6000600360009054906101000a900473ffffffffffffffffffffffffffffffffffffffff16905081600360006101000a81548173ffffffffffffffffffffffffffffffffffffffff021916908373ffffffffffffffffffffffffffffffffffffffff1602179055508173ffffffffffffffffffffffffffffffffffffffff168173ffffffffffffffffffffffffffffffffffffffff167f8be0079c531659141344cd1fd0a4f28419497f9722a3daafe3b4186f6b6457e060405160405180910390a35050565b8280546200015a90620001fc565b90600052602060002090601f0160209004810192826200017e5760008555620001ca565b82601f106200019957805160ff1916838001178555620001ca565b82800160010185558215620001ca579182015b82811115620001c9578251825591602001919060010190620001ac565b5b509050620001d99190620001dd565b5090565b5b80821115620001f8576000816000905550600101620001de565b5090565b600060028204905060018216806200021557607f821691505b602082108114156200022c576200022b62000232565b5b50919050565b7f4e487b7100000000000000000000000000000000000000000000000000000000600052602260045260246000fd5b61487c80620002716000396000f3fe6080604052600436106101135760003560e01c8063715018a6116100a0578063a2b40d1911610064578063a2b40d19146103a1578063b390c0ab146103ca578063e985e9c5146103f3578063f242432a14610430578063f2fde38b1461045957610113565b8063715018a6146102e25780637ff9b596146102f957806383ca4b6f146103245780638da5cb5b1461034d578063a22cb4651461037857610113565b80632eb2c2d6116100e75780632eb2c2d6146101eb5780633abde5171461021457806346ca73071461023d5780634e1273f41461027a578063519ee19e146102b757610113565b8062fdd58e1461011857806301ffc9a714610155578063057466ea146101925780630e89341c146101ae575b600080fd5b34801561012457600080fd5b5061013f600480360381019061013a91906134a8565b610482565b60405161014c9190613de2565b60405180910390f35b34801561016157600080fd5b5061017c60048036038101906101779190613667565b610547565b6040516101899190613be5565b60405180910390f35b6101ac60048036038101906101a791906136e2565b610629565b005b3480156101ba57600080fd5b506101d560048036038101906101d091906136b9565b6107be565b6040516101e29190613c00565b60405180910390f35b3480156101f757600080fd5b50610212600480360381019061020d919061331e565b610863565b005b34801561022057600080fd5b5061023b600480360381019061023691906135bc565b610904565b005b34801561024957600080fd5b50610264600480360381019061025f91906136b9565b610ba3565b6040516102719190613be5565b60405180910390f35b34801561028657600080fd5b506102a1600480360381019061029c91906134e4565b610bc3565b6040516102ae9190613b8c565b60405180910390f35b3480156102c357600080fd5b506102cc610d74565b6040516102d99190613de2565b60405180910390f35b3480156102ee57600080fd5b506102f7610d7a565b005b34801561030557600080fd5b5061030e610d8e565b60405161031b9190613de2565b60405180910390f35b34801561033057600080fd5b5061034b60048036038101906103469190613550565b610d94565b005b34801561035957600080fd5b50610362610f80565b60405161036f9190613aaf565b60405180910390f35b34801561038457600080fd5b5061039f600480360381019061039a919061346c565b610faa565b005b3480156103ad57600080fd5b506103c860048036038101906103c391906136b9565b610fc0565b005b3480156103d657600080fd5b506103f160048036038101906103ec91906136e2565b610fd2565b005b3480156103ff57600080fd5b5061041a600480360381019061041591906132e2565b6110d6565b6040516104279190613be5565b60405180910390f35b34801561043c57600080fd5b50610457600480360381019061045291906133dd565b61116a565b005b34801561046557600080fd5b50610480600480360381019061047b91906132b9565b61120b565b005b60008073ffffffffffffffffffffffffffffffffffffffff168373ffffffffffffffffffffffffffffffffffffffff161461050f576009600083815260200190815260200160002060008473ffffffffffffffffffffffffffffffffffffffff1673ffffffffffffffffffffffffffffffffffffffff168152602001908152602001600020549050610541565b6040517f0930907b00000000000000000000000000000000000000000000000000000000815260040160405180910390fd5b92915050565b60007fd9b67a26000000000000000000000000000000000000000000000000000000007bffffffffffffffffffffffffffffffffffffffffffffffffffffffff1916827bffffffffffffffffffffffffffffffffffffffffffffffffffffffff1916148061061257507f0e89341c000000000000000000000000000000000000000000000000000000007bffffffffffffffffffffffffffffffffffffffffffffffffffffffff1916827bffffffffffffffffffffffffffffffffffffffffffffffffffffffff1916145b8061062257506106218261128f565b5b9050919050565b6002600454141561066f576040517f08c379a000000000000000000000000000000000000000000000000000000000815260040161066690613dc2565b60405180910390fd5b600260048190555061067f610f80565b73ffffffffffffffffffffffffffffffffffffffff163373ffffffffffffffffffffffffffffffffffffffff16141580156106c65750806007546106c39190614008565b34145b15610780576107146106d6610f80565b3384846040518060400160405280600481526020017f30783030000000000000000000000000000000000000000000000000000000008152506112f9565b61071c610f80565b73ffffffffffffffffffffffffffffffffffffffff166108fc349081150290604051600060405180830381858888f19350505050158015610761573d6000803e3d6000fd5b5080600660008282546107749190613f81565b925050819055506107b2565b6040517f24d504cc00000000000000000000000000000000000000000000000000000000815260040160405180910390fd5b60016004819055505050565b60606008600083815260200190815260200160002080546107de9061414c565b80601f016020809104026020016040519081016040528092919081815260200182805461080a9061414c565b80156108575780601f1061082c57610100808354040283529160200191610857565b820191906000526020600020905b81548152906001019060200180831161083a57829003601f168201915b50505050509050919050565b61086b6113db565b73ffffffffffffffffffffffffffffffffffffffff168573ffffffffffffffffffffffffffffffffffffffff1614806108b157506108b0856108ab6113db565b6110d6565b5b6108f0576040517f08c379a00000000000000000000000000000000000000000000000000000000081526004016108e790613c42565b60405180910390fd5b6108fd85858585856113e3565b5050505050565b61090c6116ef565b60005b8451811015610b9c57838181518110610951577f4e487b7100000000000000000000000000000000000000000000000000000000600052603260045260246000fd5b602002602001015160096000878481518110610996577f4e487b7100000000000000000000000000000000000000000000000000000000600052603260045260246000fd5b6020026020010151815260200190815260200160002060003373ffffffffffffffffffffffffffffffffffffffff1673ffffffffffffffffffffffffffffffffffffffff16815260200190815260200160002060008282546109f89190613f81565b92505081905550610a403386866040518060400160405280600481526020017f307830300000000000000000000000000000000000000000000000000000000081525061176d565b6000610a8b868381518110610a7e577f4e487b7100000000000000000000000000000000000000000000000000000000600052603260045260246000fd5b60200260200101516119e6565b90508281604051602001610aa0929190613a80565b60405160208183030381529060405260086000888581518110610aec577f4e487b7100000000000000000000000000000000000000000000000000000000600052603260045260246000fd5b602002602001015181526020019081526020016000209080519060200190610b15929190612fb1565b506001600a600088600081518110610b56577f4e487b7100000000000000000000000000000000000000000000000000000000600052603260045260246000fd5b6020026020010151815260200190815260200160002060006101000a81548160ff021916908315150217905550836007819055505080610b95906141af565b905061090f565b5050505050565b600a6020528060005260406000206000915054906101000a900460ff1681565b60608151835114610c09576040517f08c379a0000000000000000000000000000000000000000000000000000000008152600401610c0090613d62565b60405180910390fd5b6000835167ffffffffffffffff811115610c4c577f4e487b7100000000000000000000000000000000000000000000000000000000600052604160045260246000fd5b604051908082528060200260200182016040528015610c7a5781602001602082028036833780820191505090505b50905060005b8451811015610d6957610d13858281518110610cc5577f4e487b7100000000000000000000000000000000000000000000000000000000600052603260045260246000fd5b6020026020010151858381518110610d06577f4e487b7100000000000000000000000000000000000000000000000000000000600052603260045260246000fd5b6020026020010151610482565b828281518110610d4c577f4e487b7100000000000000000000000000000000000000000000000000000000600052603260045260246000fd5b60200260200101818152505080610d62906141af565b9050610c80565b508091505092915050565b60065481565b610d826116ef565b610d8c6000611b93565b565b60075481565b60005b8251811015610f7057818181518110610dd9577f4e487b7100000000000000000000000000000000000000000000000000000000600052603260045260246000fd5b602002602001015160096000858481518110610e1e577f4e487b7100000000000000000000000000000000000000000000000000000000600052603260045260246000fd5b6020026020010151815260200190815260200160002060003373ffffffffffffffffffffffffffffffffffffffff1673ffffffffffffffffffffffffffffffffffffffff1681526020019081526020016000205410610f5f57818181518110610eb0577f4e487b7100000000000000000000000000000000000000000000000000000000600052603260045260246000fd5b602002602001015160096000858481518110610ef5577f4e487b7100000000000000000000000000000000000000000000000000000000600052603260045260246000fd5b6020026020010151815260200190815260200160002060003373ffffffffffffffffffffffffffffffffffffffff1673ffffffffffffffffffffffffffffffffffffffff1681526020019081526020016000206000828254610f579190614062565b925050819055505b80610f69906141af565b9050610d97565b50610f7c338383611c59565b5050565b6000600360009054906101000a900473ffffffffffffffffffffffffffffffffffffffff16905090565b610fbc610fb56113db565b8383611f74565b5050565b610fc86116ef565b8060078190555050565b806009600084815260200190815260200160002060003373ffffffffffffffffffffffffffffffffffffffff1673ffffffffffffffffffffffffffffffffffffffff16815260200190815260200160002054106110a057806009600084815260200190815260200160002060003373ffffffffffffffffffffffffffffffffffffffff1673ffffffffffffffffffffffffffffffffffffffff16815260200190815260200160002060008282546110899190614062565b9250508190555061109b3383836120e1565b6110d2565b6040517f0edfe5fe00000000000000000000000000000000000000000000000000000000815260040160405180910390fd5b5050565b6000600160008473ffffffffffffffffffffffffffffffffffffffff1673ffffffffffffffffffffffffffffffffffffffff16815260200190815260200160002060008373ffffffffffffffffffffffffffffffffffffffff1673ffffffffffffffffffffffffffffffffffffffff16815260200190815260200160002060009054906101000a900460ff16905092915050565b6111726113db565b73ffffffffffffffffffffffffffffffffffffffff168573ffffffffffffffffffffffffffffffffffffffff1614806111b857506111b7856111b26113db565b6110d6565b5b6111f7576040517f08c379a00000000000000000000000000000000000000000000000000000000081526004016111ee90613c42565b60405180910390fd5b6112048585858585612328565b5050505050565b6112136116ef565b600073ffffffffffffffffffffffffffffffffffffffff168173ffffffffffffffffffffffffffffffffffffffff161415611283576040517f08c379a000000000000000000000000000000000000000000000000000000000815260040161127a90613c82565b60405180910390fd5b61128c81611b93565b50565b60007f01ffc9a7000000000000000000000000000000000000000000000000000000007bffffffffffffffffffffffffffffffffffffffffffffffffffffffff1916827bffffffffffffffffffffffffffffffffffffffffffffffffffffffff1916149050919050565b816009600085815260200190815260200160002060008773ffffffffffffffffffffffffffffffffffffffff1673ffffffffffffffffffffffffffffffffffffffff16815260200190815260200160002060008282546113599190614062565b92505081905550816009600085815260200190815260200160002060008673ffffffffffffffffffffffffffffffffffffffff1673ffffffffffffffffffffffffffffffffffffffff16815260200190815260200160002060008282546113c09190613f81565b925050819055506113d485858585856124e0565b5050505050565b600033905090565b60005b83518110156116da5760011515600a6000868481518110611430577f4e487b7100000000000000000000000000000000000000000000000000000000600052603260045260246000fd5b6020026020010151815260200190815260200160002060009054906101000a900460ff1615151480156115335750828181518110611497577f4e487b7100000000000000000000000000000000000000000000000000000000600052603260045260246000fd5b6020026020010151600960008684815181106114dc577f4e487b7100000000000000000000000000000000000000000000000000000000600052603260045260246000fd5b6020026020010151815260200190815260200160002060008873ffffffffffffffffffffffffffffffffffffffff1673ffffffffffffffffffffffffffffffffffffffff1681526020019081526020016000205410155b15611697576000848281518110611573577f4e487b7100000000000000000000000000000000000000000000000000000000600052603260045260246000fd5b6020026020010151905060008483815181106115b8577f4e487b7100000000000000000000000000000000000000000000000000000000600052603260045260246000fd5b60200260200101519050806009600084815260200190815260200160002060008a73ffffffffffffffffffffffffffffffffffffffff1673ffffffffffffffffffffffffffffffffffffffff16815260200190815260200160002060008282546116229190614062565b92505081905550806009600084815260200190815260200160002060008973ffffffffffffffffffffffffffffffffffffffff1673ffffffffffffffffffffffffffffffffffffffff16815260200190815260200160002060008282546116899190613f81565b9250508190555050506116c9565b6040517f457cd65f00000000000000000000000000000000000000000000000000000000815260040160405180910390fd5b806116d3906141af565b90506113e6565b506116e8858585858561277c565b5050505050565b6116f76113db565b73ffffffffffffffffffffffffffffffffffffffff16611715610f80565b73ffffffffffffffffffffffffffffffffffffffff161461176b576040517f08c379a000000000000000000000000000000000000000000000000000000000815260040161176290613d22565b60405180910390fd5b565b600073ffffffffffffffffffffffffffffffffffffffff168473ffffffffffffffffffffffffffffffffffffffff1614156117dd576040517f08c379a00000000000000000000000000000000000000000000000000000000081526004016117d490613da2565b60405180910390fd5b8151835114611821576040517f08c379a000000000000000000000000000000000000000000000000000000000815260040161181890613d82565b60405180910390fd5b600061182b6113db565b905061183c81600087878787612aea565b60005b845181101561194157838181518110611881577f4e487b7100000000000000000000000000000000000000000000000000000000600052603260045260246000fd5b60200260200101516000808784815181106118c5577f4e487b7100000000000000000000000000000000000000000000000000000000600052603260045260246000fd5b6020026020010151815260200190815260200160002060008873ffffffffffffffffffffffffffffffffffffffff1673ffffffffffffffffffffffffffffffffffffffff16815260200190815260200160002060008282546119279190613f81565b925050819055508080611939906141af565b91505061183f565b508473ffffffffffffffffffffffffffffffffffffffff16600073ffffffffffffffffffffffffffffffffffffffff168273ffffffffffffffffffffffffffffffffffffffff167f4a39dc06d4c0dbc64b70af90fd698a233a518aa5d07e595d983b8c0526c8f7fb87876040516119b9929190613bae565b60405180910390a46119d081600087878787612af2565b6119df81600087878787612afa565b5050505050565b60606000821415611a2e576040518060400160405280600181526020017f30000000000000000000000000000000000000000000000000000000000000008152509050611b8e565b600082905060005b60008214611a60578080611a49906141af565b915050600a82611a599190613fd7565b9150611a36565b60008167ffffffffffffffff811115611aa2577f4e487b7100000000000000000000000000000000000000000000000000000000600052604160045260246000fd5b6040519080825280601f01601f191660200182016040528015611ad45781602001600182028036833780820191505090505b5090505b60008514611b8757600182611aed9190614062565b9150600a85611afc91906141f8565b6030611b089190613f81565b60f81b818381518110611b44577f4e487b7100000000000000000000000000000000000000000000000000000000600052603260045260246000fd5b60200101907effffffffffffffffffffffffffffffffffffffffffffffffffffffffffffff1916908160001a905350600a85611b809190613fd7565b9450611ad8565b8093505050505b919050565b6000600360009054906101000a900473ffffffffffffffffffffffffffffffffffffffff16905081600360006101000a81548173ffffffffffffffffffffffffffffffffffffffff021916908373ffffffffffffffffffffffffffffffffffffffff1602179055508173ffffffffffffffffffffffffffffffffffffffff168173ffffffffffffffffffffffffffffffffffffffff167f8be0079c531659141344cd1fd0a4f28419497f9722a3daafe3b4186f6b6457e060405160405180910390a35050565b600073ffffffffffffffffffffffffffffffffffffffff168373ffffffffffffffffffffffffffffffffffffffff161415611cc9576040517f08c379a0000000000000000000000000000000000000000000000000000000008152600401611cc090613ce2565b60405180910390fd5b8051825114611d0d576040517f08c379a0000000000000000000000000000000000000000000000000000000008152600401611d0490613d82565b60405180910390fd5b6000611d176113db565b9050611d3781856000868660405180602001604052806000815250612aea565b60005b8351811015611ed0576000848281518110611d7e577f4e487b7100000000000000000000000000000000000000000000000000000000600052603260045260246000fd5b602002602001015190506000848381518110611dc3577f4e487b7100000000000000000000000000000000000000000000000000000000600052603260045260246000fd5b60200260200101519050600080600084815260200190815260200160002060008973ffffffffffffffffffffffffffffffffffffffff1673ffffffffffffffffffffffffffffffffffffffff16815260200190815260200160002054905081811015611e64576040517f08c379a0000000000000000000000000000000000000000000000000000000008152600401611e5b90613ca2565b60405180910390fd5b81810360008085815260200190815260200160002060008a73ffffffffffffffffffffffffffffffffffffffff1673ffffffffffffffffffffffffffffffffffffffff168152602001908152602001600020819055505050508080611ec8906141af565b915050611d3a565b50600073ffffffffffffffffffffffffffffffffffffffff168473ffffffffffffffffffffffffffffffffffffffff168273ffffffffffffffffffffffffffffffffffffffff167f4a39dc06d4c0dbc64b70af90fd698a233a518aa5d07e595d983b8c0526c8f7fb8686604051611f48929190613bae565b60405180910390a4611f6e81856000868660405180602001604052806000815250612af2565b50505050565b8173ffffffffffffffffffffffffffffffffffffffff168373ffffffffffffffffffffffffffffffffffffffff161415611fe3576040517f08c379a0000000000000000000000000000000000000000000000000000000008152600401611fda90613d42565b60405180910390fd5b80600160008573ffffffffffffffffffffffffffffffffffffffff1673ffffffffffffffffffffffffffffffffffffffff16815260200190815260200160002060008473ffffffffffffffffffffffffffffffffffffffff1673ffffffffffffffffffffffffffffffffffffffff16815260200190815260200160002060006101000a81548160ff0219169083151502179055508173ffffffffffffffffffffffffffffffffffffffff168373ffffffffffffffffffffffffffffffffffffffff167f17307eab39ab6107e8899845ad3d59bd9653f200f220920489ca2b5937696c31836040516120d49190613be5565b60405180910390a3505050565b600073ffffffffffffffffffffffffffffffffffffffff168373ffffffffffffffffffffffffffffffffffffffff161415612151576040517f08c379a000000000000000000000000000000000000000000000000000000000815260040161214890613ce2565b60405180910390fd5b600061215b6113db565b9050600061216884612ce1565b9050600061217584612ce1565b905061219583876000858560405180602001604052806000815250612aea565b600080600087815260200190815260200160002060008873ffffffffffffffffffffffffffffffffffffffff1673ffffffffffffffffffffffffffffffffffffffff1681526020019081526020016000205490508481101561222c576040517f08c379a000000000000000000000000000000000000000000000000000000000815260040161222390613ca2565b60405180910390fd5b84810360008088815260200190815260200160002060008973ffffffffffffffffffffffffffffffffffffffff1673ffffffffffffffffffffffffffffffffffffffff16815260200190815260200160002081905550600073ffffffffffffffffffffffffffffffffffffffff168773ffffffffffffffffffffffffffffffffffffffff168573ffffffffffffffffffffffffffffffffffffffff167fc3d58168c5ae7397731d063d5bbf3d657854427343f4c083240f7aacaa2d0f6289896040516122f9929190613dfd565b60405180910390a461231f84886000868660405180602001604052806000815250612af2565b50505050505050565b60011515600a600085815260200190815260200160002060009054906101000a900460ff16151514156123f557816009600085815260200190815260200160002060008773ffffffffffffffffffffffffffffffffffffffff1673ffffffffffffffffffffffffffffffffffffffff16815260200190815260200160002054106123be576123b985858585856112f9565b6123f0565b6040517f0edfe5fe00000000000000000000000000000000000000000000000000000000815260040160405180910390fd5b6124d9565b60001515600a600085815260200190815260200160002060009054906101000a900460ff16151514156124a65761242a610f80565b73ffffffffffffffffffffffffffffffffffffffff168573ffffffffffffffffffffffffffffffffffffffff16141561246f5761246a85858585856112f9565b6124a1565b6040517ff2b72e6900000000000000000000000000000000000000000000000000000000815260040160405180910390fd5b6124d8565b6040517f200d7f3500000000000000000000000000000000000000000000000000000000815260040160405180910390fd5b5b5050505050565b600073ffffffffffffffffffffffffffffffffffffffff168473ffffffffffffffffffffffffffffffffffffffff161415612550576040517f08c379a000000000000000000000000000000000000000000000000000000000815260040161254790613cc2565b60405180910390fd5b600061255a6113db565b9050600061256785612ce1565b9050600061257485612ce1565b9050612584838989858589612aea565b600080600088815260200190815260200160002060008a73ffffffffffffffffffffffffffffffffffffffff1673ffffffffffffffffffffffffffffffffffffffff1681526020019081526020016000205490508581101561261b576040517f08c379a000000000000000000000000000000000000000000000000000000000815260040161261290613d02565b60405180910390fd5b85810360008089815260200190815260200160002060008b73ffffffffffffffffffffffffffffffffffffffff1673ffffffffffffffffffffffffffffffffffffffff168152602001908152602001600020819055508560008089815260200190815260200160002060008a73ffffffffffffffffffffffffffffffffffffffff1673ffffffffffffffffffffffffffffffffffffffff16815260200190815260200160002060008282546126d09190613f81565b925050819055508773ffffffffffffffffffffffffffffffffffffffff168973ffffffffffffffffffffffffffffffffffffffff168573ffffffffffffffffffffffffffffffffffffffff167fc3d58168c5ae7397731d063d5bbf3d657854427343f4c083240f7aacaa2d0f628a8a60405161274d929190613dfd565b60405180910390a4612763848a8a86868a612af2565b612771848a8a8a8a8a612da7565b505050505050505050565b81518351146127c0576040517f08c379a00000000000000000000000000000000000000000000000000000000081526004016127b790613d82565b60405180910390fd5b600073ffffffffffffffffffffffffffffffffffffffff168473ffffffffffffffffffffffffffffffffffffffff161415612830576040517f08c379a000000000000000000000000000000000000000000000000000000000815260040161282790613cc2565b60405180910390fd5b600061283a6113db565b905061284a818787878787612aea565b60005b8451811015612a47576000858281518110612891577f4e487b7100000000000000000000000000000000000000000000000000000000600052603260045260246000fd5b6020026020010151905060008583815181106128d6577f4e487b7100000000000000000000000000000000000000000000000000000000600052603260045260246000fd5b60200260200101519050600080600084815260200190815260200160002060008b73ffffffffffffffffffffffffffffffffffffffff1673ffffffffffffffffffffffffffffffffffffffff16815260200190815260200160002054905081811015612977576040517f08c379a000000000000000000000000000000000000000000000000000000000815260040161296e90613d02565b60405180910390fd5b81810360008085815260200190815260200160002060008c73ffffffffffffffffffffffffffffffffffffffff1673ffffffffffffffffffffffffffffffffffffffff168152602001908152602001600020819055508160008085815260200190815260200160002060008b73ffffffffffffffffffffffffffffffffffffffff1673ffffffffffffffffffffffffffffffffffffffff1681526020019081526020016000206000828254612a2c9190613f81565b9250508190555050505080612a40906141af565b905061284d565b508473ffffffffffffffffffffffffffffffffffffffff168673ffffffffffffffffffffffffffffffffffffffff168273ffffffffffffffffffffffffffffffffffffffff167f4a39dc06d4c0dbc64b70af90fd698a233a518aa5d07e595d983b8c0526c8f7fb8787604051612abe929190613bae565b60405180910390a4612ad4818787878787612af2565b612ae2818787878787612afa565b505050505050565b505050505050565b505050505050565b612b198473ffffffffffffffffffffffffffffffffffffffff16612f8e565b15612cd9578373ffffffffffffffffffffffffffffffffffffffff1663bc197c8187878686866040518663ffffffff1660e01b8152600401612b5f959493929190613aca565b602060405180830381600087803b158015612b7957600080fd5b505af1925050508015612baa57506040513d601f19601f82011682018060405250810190612ba79190613690565b60015b612c5057612bb66142e5565b806308c379a01415612c135750612bcb614754565b80612bd65750612c15565b806040517f08c379a0000000000000000000000000000000000000000000000000000000008152600401612c0a9190613c00565b60405180910390fd5b505b6040517f08c379a0000000000000000000000000000000000000000000000000000000008152600401612c4790613c22565b60405180910390fd5b63bc197c8160e01b7bffffffffffffffffffffffffffffffffffffffffffffffffffffffff1916817bffffffffffffffffffffffffffffffffffffffffffffffffffffffff191614612cd7576040517f08c379a0000000000000000000000000000000000000000000000000000000008152600401612cce90613c62565b60405180910390fd5b505b505050505050565b60606000600167ffffffffffffffff811115612d26577f4e487b7100000000000000000000000000000000000000000000000000000000600052604160045260246000fd5b604051908082528060200260200182016040528015612d545781602001602082028036833780820191505090505b5090508281600081518110612d92577f4e487b7100000000000000000000000000000000000000000000000000000000600052603260045260246000fd5b60200260200101818152505080915050919050565b612dc68473ffffffffffffffffffffffffffffffffffffffff16612f8e565b15612f86578373ffffffffffffffffffffffffffffffffffffffff1663f23a6e6187878686866040518663ffffffff1660e01b8152600401612e0c959493929190613b32565b602060405180830381600087803b158015612e2657600080fd5b505af1925050508015612e5757506040513d601f19601f82011682018060405250810190612e549190613690565b60015b612efd57612e636142e5565b806308c379a01415612ec05750612e78614754565b80612e835750612ec2565b806040517f08c379a0000000000000000000000000000000000000000000000000000000008152600401612eb79190613c00565b60405180910390fd5b505b6040517f08c379a0000000000000000000000000000000000000000000000000000000008152600401612ef490613c22565b60405180910390fd5b63f23a6e6160e01b7bffffffffffffffffffffffffffffffffffffffffffffffffffffffff1916817bffffffffffffffffffffffffffffffffffffffffffffffffffffffff191614612f84576040517f08c379a0000000000000000000000000000000000000000000000000000000008152600401612f7b90613c62565b60405180910390fd5b505b505050505050565b6000808273ffffffffffffffffffffffffffffffffffffffff163b119050919050565b828054612fbd9061414c565b90600052602060002090601f016020900481019282612fdf5760008555613026565b82601f10612ff857805160ff1916838001178555613026565b82800160010185558215613026579182015b8281111561302557825182559160200191906001019061300a565b5b5090506130339190613037565b5090565b5b80821115613050576000816000905550600101613038565b5090565b600061306761306284613e4b565b613e26565b9050808382526020820190508285602086028201111561308657600080fd5b60005b858110156130b6578161309c88826131a8565b845260208401935060208301925050600181019050613089565b5050509392505050565b60006130d36130ce84613e77565b613e26565b905080838252602082019050828560208602820111156130f257600080fd5b60005b85811015613122578161310888826132a4565b8452602084019350602083019250506001810190506130f5565b5050509392505050565b600061313f61313a84613ea3565b613e26565b90508281526020810184848401111561315757600080fd5b61316284828561410a565b509392505050565b600061317d61317884613ed4565b613e26565b90508281526020810184848401111561319557600080fd5b6131a084828561410a565b509392505050565b6000813590506131b7816147ea565b92915050565b600082601f8301126131ce57600080fd5b81356131de848260208601613054565b91505092915050565b600082601f8301126131f857600080fd5b81356132088482602086016130c0565b91505092915050565b60008135905061322081614801565b92915050565b60008135905061323581614818565b92915050565b60008151905061324a81614818565b92915050565b600082601f83011261326157600080fd5b813561327184826020860161312c565b91505092915050565b600082601f83011261328b57600080fd5b813561329b84826020860161316a565b91505092915050565b6000813590506132b38161482f565b92915050565b6000602082840312156132cb57600080fd5b60006132d9848285016131a8565b91505092915050565b600080604083850312156132f557600080fd5b6000613303858286016131a8565b9250506020613314858286016131a8565b9150509250929050565b600080600080600060a0868803121561333657600080fd5b6000613344888289016131a8565b9550506020613355888289016131a8565b945050604086013567ffffffffffffffff81111561337257600080fd5b61337e888289016131e7565b935050606086013567ffffffffffffffff81111561339b57600080fd5b6133a7888289016131e7565b925050608086013567ffffffffffffffff8111156133c457600080fd5b6133d088828901613250565b9150509295509295909350565b600080600080600060a086880312156133f557600080fd5b6000613403888289016131a8565b9550506020613414888289016131a8565b9450506040613425888289016132a4565b9350506060613436888289016132a4565b925050608086013567ffffffffffffffff81111561345357600080fd5b61345f88828901613250565b9150509295509295909350565b6000806040838503121561347f57600080fd5b600061348d858286016131a8565b925050602061349e85828601613211565b9150509250929050565b600080604083850312156134bb57600080fd5b60006134c9858286016131a8565b92505060206134da858286016132a4565b9150509250929050565b600080604083850312156134f757600080fd5b600083013567ffffffffffffffff81111561351157600080fd5b61351d858286016131bd565b925050602083013567ffffffffffffffff81111561353a57600080fd5b613546858286016131e7565b9150509250929050565b6000806040838503121561356357600080fd5b600083013567ffffffffffffffff81111561357d57600080fd5b613589858286016131e7565b925050602083013567ffffffffffffffff8111156135a657600080fd5b6135b2858286016131e7565b9150509250929050565b600080600080608085870312156135d257600080fd5b600085013567ffffffffffffffff8111156135ec57600080fd5b6135f8878288016131e7565b945050602085013567ffffffffffffffff81111561361557600080fd5b613621878288016131e7565b9350506040613632878288016132a4565b925050606085013567ffffffffffffffff81111561364f57600080fd5b61365b8782880161327a565b91505092959194509250565b60006020828403121561367957600080fd5b600061368784828501613226565b91505092915050565b6000602082840312156136a257600080fd5b60006136b08482850161323b565b91505092915050565b6000602082840312156136cb57600080fd5b60006136d9848285016132a4565b91505092915050565b600080604083850312156136f557600080fd5b6000613703858286016132a4565b9250506020613714858286016132a4565b9150509250929050565b600061372a8383613a62565b60208301905092915050565b61373f81614096565b82525050565b600061375082613f15565b61375a8185613f43565b935061376583613f05565b8060005b8381101561379657815161377d888261371e565b975061378883613f36565b925050600181019050613769565b5085935050505092915050565b6137ac816140a8565b82525050565b60006137bd82613f20565b6137c78185613f54565b93506137d7818560208601614119565b6137e081614307565b840191505092915050565b60006137f682613f2b565b6138008185613f65565b9350613810818560208601614119565b61381981614307565b840191505092915050565b600061382f82613f2b565b6138398185613f76565b9350613849818560208601614119565b80840191505092915050565b6000613862603483613f65565b915061386d82614325565b604082019050919050565b6000613885602f83613f65565b915061389082614374565b604082019050919050565b60006138a8602883613f65565b91506138b3826143c3565b604082019050919050565b60006138cb602683613f65565b91506138d682614412565b604082019050919050565b60006138ee602483613f65565b91506138f982614461565b604082019050919050565b6000613911602583613f65565b915061391c826144b0565b604082019050919050565b6000613934602383613f65565b915061393f826144ff565b604082019050919050565b6000613957602a83613f65565b91506139628261454e565b604082019050919050565b600061397a600583613f76565b91506139858261459d565b600582019050919050565b600061399d602083613f65565b91506139a8826145c6565b602082019050919050565b60006139c0602983613f65565b91506139cb826145ef565b604082019050919050565b60006139e3602983613f65565b91506139ee8261463e565b604082019050919050565b6000613a06602883613f65565b9150613a118261468d565b604082019050919050565b6000613a29602183613f65565b9150613a34826146dc565b604082019050919050565b6000613a4c601f83613f65565b9150613a578261472b565b602082019050919050565b613a6b81614100565b82525050565b613a7a81614100565b82525050565b6000613a8c8285613824565b9150613a988284613824565b9150613aa38261396d565b91508190509392505050565b6000602082019050613ac46000830184613736565b92915050565b600060a082019050613adf6000830188613736565b613aec6020830187613736565b8181036040830152613afe8186613745565b90508181036060830152613b128185613745565b90508181036080830152613b2681846137b2565b90509695505050505050565b600060a082019050613b476000830188613736565b613b546020830187613736565b613b616040830186613a71565b613b6e6060830185613a71565b8181036080830152613b8081846137b2565b90509695505050505050565b60006020820190508181036000830152613ba68184613745565b905092915050565b60006040820190508181036000830152613bc88185613745565b90508181036020830152613bdc8184613745565b90509392505050565b6000602082019050613bfa60008301846137a3565b92915050565b60006020820190508181036000830152613c1a81846137eb565b905092915050565b60006020820190508181036000830152613c3b81613855565b9050919050565b60006020820190508181036000830152613c5b81613878565b9050919050565b60006020820190508181036000830152613c7b8161389b565b9050919050565b60006020820190508181036000830152613c9b816138be565b9050919050565b60006020820190508181036000830152613cbb816138e1565b9050919050565b60006020820190508181036000830152613cdb81613904565b9050919050565b60006020820190508181036000830152613cfb81613927565b9050919050565b60006020820190508181036000830152613d1b8161394a565b9050919050565b60006020820190508181036000830152613d3b81613990565b9050919050565b60006020820190508181036000830152613d5b816139b3565b9050919050565b60006020820190508181036000830152613d7b816139d6565b9050919050565b60006020820190508181036000830152613d9b816139f9565b9050919050565b60006020820190508181036000830152613dbb81613a1c565b9050919050565b60006020820190508181036000830152613ddb81613a3f565b9050919050565b6000602082019050613df76000830184613a71565b92915050565b6000604082019050613e126000830185613a71565b613e1f6020830184613a71565b9392505050565b6000613e30613e41565b9050613e3c828261417e565b919050565b6000604051905090565b600067ffffffffffffffff821115613e6657613e656142b6565b5b602082029050602081019050919050565b600067ffffffffffffffff821115613e9257613e916142b6565b5b602082029050602081019050919050565b600067ffffffffffffffff821115613ebe57613ebd6142b6565b5b613ec782614307565b9050602081019050919050565b600067ffffffffffffffff821115613eef57613eee6142b6565b5b613ef882614307565b9050602081019050919050565b6000819050602082019050919050565b600081519050919050565b600081519050919050565b600081519050919050565b6000602082019050919050565b600082825260208201905092915050565b600082825260208201905092915050565b600082825260208201905092915050565b600081905092915050565b6000613f8c82614100565b9150613f9783614100565b9250827fffffffffffffffffffffffffffffffffffffffffffffffffffffffffffffffff03821115613fcc57613fcb614229565b5b828201905092915050565b6000613fe282614100565b9150613fed83614100565b925082613ffd57613ffc614258565b5b828204905092915050565b600061401382614100565b915061401e83614100565b9250817fffffffffffffffffffffffffffffffffffffffffffffffffffffffffffffffff048311821515161561405757614056614229565b5b828202905092915050565b600061406d82614100565b915061407883614100565b92508282101561408b5761408a614229565b5b828203905092915050565b60006140a1826140e0565b9050919050565b60008115159050919050565b60007fffffffff0000000000000000000000000000000000000000000000000000000082169050919050565b600073ffffffffffffffffffffffffffffffffffffffff82169050919050565b6000819050919050565b82818337600083830152505050565b60005b8381101561413757808201518184015260208101905061411c565b83811115614146576000848401525b50505050565b6000600282049050600182168061416457607f821691505b6020821081141561417857614177614287565b5b50919050565b61418782614307565b810181811067ffffffffffffffff821117156141a6576141a56142b6565b5b80604052505050565b60006141ba82614100565b91507fffffffffffffffffffffffffffffffffffffffffffffffffffffffffffffffff8214156141ed576141ec614229565b5b600182019050919050565b600061420382614100565b915061420e83614100565b92508261421e5761421d614258565b5b828206905092915050565b7f4e487b7100000000000000000000000000000000000000000000000000000000600052601160045260246000fd5b7f4e487b7100000000000000000000000000000000000000000000000000000000600052601260045260246000fd5b7f4e487b7100000000000000000000000000000000000000000000000000000000600052602260045260246000fd5b7f4e487b7100000000000000000000000000000000000000000000000000000000600052604160045260246000fd5b600060033d11156143045760046000803e614301600051614318565b90505b90565b6000601f19601f8301169050919050565b60008160e01c9050919050565b7f455243313135353a207472616e7366657220746f206e6f6e204552433131353560008201527f526563656976657220696d706c656d656e746572000000000000000000000000602082015250565b7f455243313135353a2063616c6c6572206973206e6f7420746f6b656e206f776e60008201527f6572206e6f7220617070726f7665640000000000000000000000000000000000602082015250565b7f455243313135353a204552433131353552656365697665722072656a6563746560008201527f6420746f6b656e73000000000000000000000000000000000000000000000000602082015250565b7f4f776e61626c653a206e6577206f776e657220697320746865207a65726f206160008201527f6464726573730000000000000000000000000000000000000000000000000000602082015250565b7f455243313135353a206275726e20616d6f756e7420657863656564732062616c60008201527f616e636500000000000000000000000000000000000000000000000000000000602082015250565b7f455243313135353a207472616e7366657220746f20746865207a65726f20616460008201527f6472657373000000000000000000000000000000000000000000000000000000602082015250565b7f455243313135353a206275726e2066726f6d20746865207a65726f206164647260008201527f6573730000000000000000000000000000000000000000000000000000000000602082015250565b7f455243313135353a20696e73756666696369656e742062616c616e636520666f60008201527f72207472616e7366657200000000000000000000000000000000000000000000602082015250565b7f2e6a736f6e000000000000000000000000000000000000000000000000000000600082015250565b7f4f776e61626c653a2063616c6c6572206973206e6f7420746865206f776e6572600082015250565b7f455243313135353a2073657474696e6720617070726f76616c2073746174757360008201527f20666f722073656c660000000000000000000000000000000000000000000000602082015250565b7f455243313135353a206163636f756e747320616e6420696473206c656e67746860008201527f206d69736d617463680000000000000000000000000000000000000000000000602082015250565b7f455243313135353a2069647320616e6420616d6f756e7473206c656e6774682060008201527f6d69736d61746368000000000000000000000000000000000000000000000000602082015250565b7f455243313135353a206d696e7420746f20746865207a65726f2061646472657360008201527f7300000000000000000000000000000000000000000000000000000000000000602082015250565b7f5265656e7472616e637947756172643a207265656e7472616e742063616c6c00600082015250565b600060443d1015614764576147e7565b61476c613e41565b60043d036004823e80513d602482011167ffffffffffffffff821117156147945750506147e7565b808201805167ffffffffffffffff8111156147b257505050506147e7565b80602083010160043d0385018111156147cf5750505050506147e7565b6147de8260200185018661417e565b82955050505050505b90565b6147f381614096565b81146147fe57600080fd5b50565b61480a816140a8565b811461481557600080fd5b50565b614821816140b4565b811461482c57600080fd5b50565b61483881614100565b811461484357600080fd5b5056fea2646970667358221220f4df161303c31ad8183d722b04cab2ecd1adcff4f88505171ce1798ce7f33a7964736f6c63430008040033",
  "linkReferences": {},
  "deployedLinkReferences": {}
}